:100000004BC065C064C063C062C061C060C05FC0F7
:100010005EC05DC05CC05BC05AC059C058C057C00C
:100020004ECB55C054C053C052C051C050C04FC039
:100030004EC04DC000000009000302000004050886
:100040000000000000000000000000010204081091
:100050002040800102040810200102040810204002
:1000600080400404040404040404020202020202A4
:10007000030303030303020203000000002300261E
:1000800000290000000000250028002B00000000CF
:1000900000240027002A000011241FBECFEFD4E067
:1000A000DEBFCDBF11E0A0E0B1E0E6E3FAE102C0BF
:1000B00005900D92AA31B107D9F721E0AAE1B1E08C
:1000C00001C01D92AF3AB207E1F7EFDAB2CC98CF98
:1000D0009ACCA1CCA0917C01B0917D011196B093F6
:1000E0007D01A0937C01E0917A01F0917B01319632
:1000F000F0937B01E0937A0160917801709179012E
:100100006F5F7F4F70937901609378014091760122
:10011000509177014F5F5F4F509377014093760185
:1001200020917401309175012F5F3F4F309375011D
:1001300020937401809172019091730101969093C4
:10014000730180937201129724F010927D01109236
:100150007C01339724F010927B0110927A01643075
:10016000710524F010927901109278014630510502
:1001700024F010927701109276012830310524F096
:1001800010927501109274010A9724F01092730175
:100190001092720180916C0190916D0181309105F6
:1001A00061F480917C0190917D011816190674F01C
:1001B000109299011092980109C082309105C9F4FA
:1001C00080917A0190917B01029794F380916A016A
:1001D00090916B018130910589F580917C0190911E
:1001E0007D01181619069CF1109297011092960144
:1001F0002EC08330910529F4809178019091790186
:10020000E3CF8430910539F48091760190917701A4
:10021000039774F2DBCF8530910539F48091740136
:1002200090917501049724F2D1CF069779F68091C9
:1002300072019091730105974CF6BACF8230910507
:10024000C9F480917A0190917B0102976CF28091C0
:100250006801909169018130910599F580917C0147
:1002600090917D0118161906ACF11092950110922B
:10027000940130C08330910529F4809178019091E8
:100280007901E3CF8430910541F48091760190911A
:10029000770103970CF4A8CFDACF8530910541F4AC
:1002A000809174019091750104970CF49DCFCFCF8C
:1002B000069769F6809172019091730105973CF65B
:1002C00093CF82309105C9F480917A0190917B019E
:1002D00002975CF2809166019091670181309105EF
:1002E00099F580917C0190917D0118161906ACF169
:1002F00010929D0110929C0130C08330910529F429
:100300008091780190917901E3CF8430910541F497
:10031000809176019091770103970CF4A6CFDACF04
:100320008530910541F48091740190917501049795
:100330000CF49BCFCFCF069769F680917201909114
:10034000730105973CF691CF82309105C9F48091F5
:100350007A0190917B0102975CF280916401909107
:1003600065018130910599F580917C0190917D0125
:1003700018161906ACF110929B0110929A0130C028
:100380008330910529F48091780190917901E3CF30
:100390008430910541F48091760190917701039723
:1003A0000CF4A6CFDACF8530910541F48091740129
:1003B0009091750104970CF49BCFCFCF069769F607
:1003C000809172019091730105973CF691CF823034
:1003D0009105C9F480917A0190917B0102975CF2BA
:1003E00080916201909163018130910599F580912E
:1003F0007C0190917D0118161906ACF110929301C1
:100400001092920130C08330910529F480917801D7
:1004100090917901E3CF8430910541F48091760188
:100420009091770103970CF4A6CFDACF8530910530
:1004300041F4809174019091750104970CF49BCF65
:10044000CFCF069769F6809172019091730105975D
:100450003CF691CF8230910539F480917A019091E8
:100460007B0102975CF208958330910529F4809115
:10047000780190917901F5CF8430910541F4809114
:1004800076019091770103970CF4B8CF08958530E9
:10049000910541F4809174019091750104970CF4D9
:1004A000ADCF08950697F9F680917201909173018E
:1004B00005970CF4A3CFD7CFCF93DF93C8E1D1E05A
:1004C00061E088810EDA61E0888147DAC6E1D1E037
:1004D00061E0888106DA60E088813FDA62E080913D
:1004E0001401DF91CF91FDC90F931F93CF93DF9339
:1004F0006FE070E080E090E051D982EC91E084D927
:1005000061E08091160129DA8BE090E07DD960E00E
:100510008091160122DA86E090E076D90AE111E0B6
:10052000D0E0C0E060E08091180117DA86E090E04A
:100530006BD9CC30D10534F4809114013BDAF80149
:100540009183808361E08091180107DA86E090E072
:100550005BD921960E5F1F4FC031D10519F7DF918E
:10056000CF911F910F910895CF93DF93A5DF81E184
:1005700090E0AEDD90E090936F0180936E01CCE04F
:10058000D0E0B2DF2197E9F780912A0190912B0109
:10059000892B91F480916E0190916F0101968230C8
:1005A00091050CF09EC090936F0180936E01609155
:1005B0006E0181E190E08DDD80916E0190916F017F
:1005C000892B81F4CCE0D0E01AB860E170E080E0E3
:1005D00090E0E4D8509A60E170E080E090E0DED8EE
:1005E000219791F780916E0190916F01019739F4F5
:1005F000509A68EE73E080E090E0D0D81AB880910D
:100600006E0190916F01892B09F060C090E080E04D
:100610005FDD90E090930D0180930C0181E090E00C
:1006200057DD90E090930F0180930E0182E090E0FF
:100630004FDD90E090930B0180930A0183E090E0FE
:1006400047DD90E0909307018093060184E090E0FD
:100650003FDD90E0909309018093080185E090E0F0
:1006600037DD90E0909305018093040187E090E0EE
:100670002FDD90E090936D0180936C0188E090E015
:1006800027DD90E090936B0180936A0189E090E010
:100690001FDD90E090936901809368018AE090E00B
:1006A00017DD90E090936701809366018BE090E006
:1006B0000FDD90E090936501809364018CE090E001
:1006C00007DD90E0909363018093620186E090E003
:1006D000FFDC90E09093110180931001DF91CF91A6
:1006E000089510926F0110926E0161CF80914801C0
:1006F000909149019093610180936001809146013E
:100700009091470190935F0180935E0180913E013B
:1007100090913F019093570180935601809142013F
:100720009091430190935B0180935A018091400125
:100730009091410190935901809358018091440117
:100740009091450190935D0180935C0180913C0103
:1007500090913D01909355018093540180913A010D
:1007600090913B0190935301809352018091380105
:1007700090913901909351018093500180913601FD
:100780009091370190934F0180934E0180913401F5
:100790009091350190934D0180934C0180913201ED
:1007A0009091330190934B0180934A0110928D01F7
:1007B00010928C0110928B0110928A011092A50167
:1007C0001092A4011092A3011092A2011092A10113
:1007D0001092A00110929F0110929E0110928F0121
:1007E00010928E01109291011092900110923D0191
:1007F00010923C0110923B0110923A011092390183
:100800001092380110923701109236011092350182
:10081000109234011092330110923201109249016A
:100820001092480110924701109246011092450122
:100830001092440110924301109242011092410122
:100840001092400110923F0110923E0110929901C6
:1008500010929801109297011092960110929501B2
:100860001092940110929D0110929C0110929B0194
:1008700010929A01109293011092920180911A01A4
:1008800090911B01892B71F48091080190910901CD
:1008900090939B0180939A0181E090E090934101B5
:1008A0008093400180911C0190911D01892B71F46E
:1008B00080910E0190910F01909397018093960182
:1008C00081E090E0909347018093460180911E0162
:1008D00090911F01892B71F4809100019091010189
:1008E00090938F0180938E0181E090E090933B0183
:1008F00080933A018091200190912101892B71F41C
:100900008091020190910301909391018093900155
:1009100081E090E090933D0180933C018091220121
:1009200090912301892B51F481E090E09093A501EF
:100930008093A40190933901809338018091240120
:1009400090912501892B51F481E090E09093A301CF
:100950008093A20190933701809336018091260104
:1009600090912701892B51F481E090E09093A101AF
:100970008093A001909335018093340180912801E8
:1009800090912901892B51F481E090E090939F018F
:1009900080939E01909333018093320180912A01CC
:1009A00090912B01892B71F48091060190910701A0
:1009B00090939D0180939C0181E090E0909343018E
:1009C0008093420180912C0190912D01892B71F42B
:1009D00080910C0190910D01909399018093980161
:1009E00081E090E0909349018093480180912E012D
:1009F00090912F01892B71F480910A0190910B0144
:100A0000909395018093940181E090E0909345014B
:100A1000809344018091300190913101892B71F4D0
:100A2000809104019091050190939301809392012C
:100A300081E090E090933F0180933E0180914801D6
:100A4000909149012091460130914701820F931FF7
:100A50002091440130914501820F931F2091420162
:100A600030914301820F931F209140013091410149
:100A7000820F931F20913E0130913F01820F931FFF
:100A800090937101809370010895CF92DF92EF925D
:100A9000FF920F931F93CF93DF93C0919601D09154
:100AA00097010091980110919901A0919401B09142
:100AB0009501E0919C01F0919D0160919A017091E6
:100AC0009B014091920150919301209190013091AE
:100AD0009101C0908E01D0908F01C230D105B1F04C
:100AE0000230110599F0A230B10581F0E230F10534
:100AF00069F06230710551F04230510539F0223011
:100B0000310521F082E0C816D10451F4E0908C0147
:100B1000F0908D016894E0F8F0928D01E0928C01E4
:100B2000A330B105B1F0C330D10599F00330110500
:100B300081F0E330F10569F06330710551F0433025
:100B4000510539F02330310521F083E0C816D10476
:100B500051F4E0908C01F0908D016894E1F8F092EE
:100B60008D01E0928C01E430F105B1F0C430D10583
:100B700099F00430110581F0A430B10569F06430BA
:100B8000710551F04430510539F02430310521F020
:100B900084E0C816D10451F4E0908C01F0908D01EE
:100BA0006894E2F8F0928D01E0928C0127303105D3
:100BB000B1F0E730F10599F0C730D10581F0073089
:100BC000110569F0A730B10551F06730710539F0B2
:100BD0004730510521F087E0C816D10451F4E09068
:100BE0008C01F0908D016894E3F8F0928D01E09211
:100BF0008C0146305105B1F0C630D10599F0063070
:100C0000110581F0A630B10569F0E630F10551F02B
:100C10006630710539F02630310521F086E0C816BE
:100C2000D10451F4E0908C01F0908D016894E4F8C7
:100C3000F0928D01E0928C0165307105B1F0C53004
:100C4000D10599F00530110581F0A530B10569F0A5
:100C5000E530F10551F04530510539F025303105C9
:100C600021F085E0C816D10451F4E0908C01F09099
:100C70008D016894E5F8F0928D01E0928C01E0908E
:100C8000A401F090A501EA94EF2851F4E0908A01C4
:100C9000F0908B016894E1F8F0928B01E0928A0168
:100CA00088E0C816D104A9F04830510591F0C83049
:100CB000D10579F00830110561F0A830B10549F08F
:100CC000E830F10531F06830710519F02830310550
:100CD00051F4E0908A01F0908B016894E2F8F09270
:100CE0008B01E0928A01E090A201F090A301EA94C6
:100CF000EF2851F4E0908A01F0908B016894E4F8B9
:100D0000F0928B01E0928A01E090A001F090A101A5
:100D1000EA94EF2851F4E0908A01F0908B016894F6
:100D2000E5F8F0928B01E0928A01E0909E01F0904C
:100D30009F01EA94EF2851F4E0908A01F0908B0132
:100D40006894E6F8F0928B01E0928A010130110577
:100D500091F0219781F0119771F0319761F0613036
:100D6000710549F04130510531F02130310519F05C
:100D7000CA94CD2849F480918A0190918B018068B2
:100D800090938B0180938A01DF91CF911F910F91F6
:100D9000FF90EF90DF90CF90089580913C0190916B
:100DA0003D018130910509F0BEC020917001309164
:100DB00071012230310509F0B6C020915401309103
:100DC00055012130310509F0AEC0209186013091E6
:100DD00087012F5F3F4F3093870120938601209139
:100DE0001201309113014091860150918701421701
:100DF000530754F0109287011092860141E050E0B1
:100E000050938901409388018130910509F090C089
:100E100040917001509171014130510509F088C035
:100E200040915401509155014130510509F080C065
:100E300040917E0150917F014F5F5F4F50937F0142
:100E400040937E0140917E0150917F0142175307EC
:100E500054F010927F0110927E0141E050E05093D7
:100E60008101409380018130910509F066C0409175
:100E70007001509171014630510509F05EC04091FA
:100E80005401509155014130510509F056C08091EF
:100E9000840190918501019690938501809384014E
:100EA0008091700190917101059709F04DC080917A
:100EB000540190915501019709F046C0809182013B
:100EC0009091830101969093830180938201809198
:100ED0008401909185018217930764F01092850137
:100EE00010928401109211011092100160E086E0CE
:100EF00090E0EFD82091820130918301809112011E
:100F0000909113012817390724F110928301109250
:100F1000820181E090E0909311018093100161E0E3
:100F200086E090E0D6C8109287011092860157CFD4
:100F300010927F0110927E0185CF10928501109250
:100F40008401019709F4ACCF1092830110928201C1
:100F5000BECF0895809170019091710120913C0164
:100F600030913D012130310511F582309105F9F4C0
:100F700010920D0110920C0110920F0110920E01AF
:100F800010920B0110920A011092070110920601B3
:100F900010920901109208011092050110920401AB
:100FA00030938B0120938A0181E08AB908952091C2
:100FB0008A0130918B01216030938B0120938A014B
:100FC00020914801309149012130310599F4209157
:100FD000600130916101232B69F48130910551F456
:100FE00020910C0130910D012F5F3F4F30930D0187
:100FF00020930C0120910C0130910D012930310515
:1010000024F010920D0110920C01209146013091B4
:1010100047012130310599F420915E0130915F0143
:10102000232B69F48130910551F420910E01309108
:101030000F012F5F3F4F30930F0120930E0120913E
:101040000E0130910F012930310524F010920F016B
:1010500010920E012091440130914501213031055B
:1010600099F420915C0130915D01232B69F481306A
:10107000910551F420910A0130910B012F5F3F4FF0
:1010800030930B0120930A0120910A0130910B014A
:101090002930310524F010920B0110920A012091A1
:1010A0004201309143012130310599F420915A01D8
:1010B00030915B01232B69F48130910551F420912B
:1010C0000601309107012F5F3F4F309307012093B6
:1010D000060120910601309107012930310524F0E5
:1010E00010920701109206012091400130914101B8
:1010F0002130310599F42091580130915901232B69
:1011000069F48130910551F4209108013091090171
:101110002F5F3F4F30930901209308012091080170
:10112000309109012930310524F010920901109203
:10113000080120913E0130913F012130310599F4A1
:101140002091560130915701232B69F4813091058C
:1011500051F420910401309105012F5F3F4F3093EE
:1011600005012093040120910401309105012930EB
:10117000310524F01092050110920401019721F429
:1011800010928B0110928A0180918A018AB9809114
:101190003C0190913D01019741F58091540190915E
:1011A0005501892B11F510928901109288016091E7
:1011B0000C0190E080E08DD760910E0181E090E01D
:1011C00088D760910A0182E090E083D760910601A0
:1011D00083E090E07ED76091080184E090E079D7C9
:1011E0006091040185E090E074C7089580917001DA
:1011F0009091710120913C0130913D0121303105E8
:1012000011F581309105F9F410926D0110926C0185
:1012100010926B0110926A0110926901109268019C
:10122000109267011092660110926501109264019C
:10123000109263011092620190938B0180938A0156
:1012400081E08AB9089520918A0130918B01216053
:1012500030938B0120938A012091480130914901FC
:101260002130310599F42091600130916101232BE7
:1012700069F48130910551F420916C0130916D0138
:101280002F5F3F4F30936D0120936C0120916C01D3
:1012900030916D012930310524F010926D011092CA
:1012A0006C0120914601309147012130310599F4BC
:1012B00020915E0130915F01232B69F4813091050B
:1012C00051F420916A0130916B012F5F3F4F3093B1
:1012D0006B0120936A0120916A0130916B012930E2
:1012E000310524F010926B0110926A0120914401A3
:1012F000309145012130310599F420915C01309104
:101300005D01232B69F48130910551F4209168012E
:10131000309169012F5F3F4F30936901209368013D
:1013200020916801309169012930310524F0109233
:1013300069011092680120914201309143012130EE
:10134000310599F420915A0130915B01232B69F406
:101350008130910551F420916601309167012F5F32
:101360003F4F3093670120936601209166013091D1
:1013700067012930310524F010926701109266014F
:1013800020914001309141012130310599F42091A3
:10139000580130915901232B69F48130910551F4A2
:1013A00020916401309165012F5F3F4F30936501BB
:1013B0002093640120916401309165012930310549
:1013C00024F0109265011092640120913E01309149
:1013D0003F012130310599F4209156013091570198
:1013E000232B69F48130910551F4209162013091F1
:1013F00063012F5F3F4F309363012093620120917F
:101400006201309163012930310524F010926301AB
:1014100010926201019721F410928B0110928A01BF
:1014200080918A018AB980913C0190913D01019798
:1014300041F58091540190915501892B11F510923D
:1014400081011092800160916C0187E090E041D6AB
:1014500060916A0188E090E03CD66091680189E083
:1014600090E037D6609166018AE090E032D66091D4
:1014700064018BE090E02DD6609162018CE090E0F9
:1014800028C608958091400190914101892B71F403
:101490008091580190915901019741F48091080180
:1014A0009091090190939B0180939A018091420150
:1014B00090914301892B71F480915A0190915B01C5
:1014C000019741F4809106019091070190939D014D
:1014D00080939C018091480190914901892B71F47E
:1014E0008091600190916101019741F480910C011C
:1014F00090910D01909399018093980180914601FC
:1015000090914701892B71F480915E0190915F0168
:10151000019741F480910E0190910F0190939701F2
:10152000809396018091440190914501892B71F43B
:1015300080915C0190915D01019741F480910A01D5
:1015400090910B01909395018093940180913E01BD
:1015500090913F01892B71F4809156019091570130
:10156000019741F4809104019091050190939301BA
:101570008093920180913C0190913D01892B71F4FF
:101580008091540190915501019741F4809102019D
:1015900090910301909391018093900180913A0181
:1015A00090913B01892B71F48091520190915301EC
:1015B000019741F4809100019091010190938F0176
:1015C00080938E018091380190913901892B59F4D3
:1015D00080915001909151018130910521F49093B7
:1015E000A5018093A4018091360190913701892B48
:1015F00059F480914E0190914F018130910521F471
:101600009093A3018093A2018091340190913501C0
:10161000892B59F480914C0190914D0181309105B5
:1016200021F49093A1018093A001809132019091C7
:101630003301892B59F480914A0190914B018130FB
:10164000910521F490939F0180939E0108954CD7BA
:101650004DD880916E0190916F01892B09F49DDB2B
:101660008091100190911101892B09F00BDF80917D
:10167000880190918901019761F410928101109283
:10168000800168DC80918C0184B980918A018AB9DB
:1016900008958091800190918101019711F4A6DD58
:1016A000F1CF18D5F2D9EECF0895B7D0FDDF5CD7D2
:1016B000C0E0D0E0CCDF2097E9F3A2D4FBCF1F92AB
:1016C0000F920FB60F9211242F933F938F939F93F6
:1016D000AF93BF938091A7019091A801A091A90118
:1016E000B091AA013091A60126E0230F2D3758F5BD
:1016F0000296A11DB11D2093A6018093A70190938E
:10170000A801A093A901B093AA018091AB01909187
:10171000AC01A091AD01B091AE010196A11DB11D2A
:101720008093AB019093AC01A093AD01B093AE0157
:10173000BF91AF919F918F913F912F910F900FBECD
:101740000F901F90189529E8230F0396A11DB11D36
:10175000D2CF3FB7F8948091AB019091AC01A091AA
:10176000AD01B091AE0126B5A89B05C02F3F19F081
:101770000196A11DB11D3FBFBA2FA92F982F882711
:10178000BC01CD01620F711D811D911D43E0660FEB
:10179000771F881F991F4A95D1F708958F929F92BE
:1017A000AF92BF92CF92DF92EF92FF926B017C01DA
:1017B000D0DF4B015C01C114D104E104F104D9F084
:1017C00021D1C7DF681979098A099B09683E7340EE
:1017D0008105910580F321E0C21AD108E108F108E2
:1017E00088EE880E83E0981EA11CB11CC114D104A0
:1017F000E104F10431F7FF90EF90DF90CF90BF90BC
:10180000AF909F908F9008958330910528F0880FB6
:10181000991F04970197F1F70895789484B5826031
:1018200084BD84B5816084BD85B5826085BD85B584
:10183000816085BDEEE6F0E0808181608083E1E833
:10184000F0E010828081826080838081816080836B
:10185000E0E8F0E0808181608083E1EBF0E080816E
:1018600084608083E0EBF0E0808181608083EAE740
:10187000F0E08081846080838081826080838081C9
:101880008E7F80838081806880831092C10008955C
:10189000843081F028F4823099F08330A9F00895E3
:1018A0008830A9F08930C9F08530B1F4809180008A
:1018B0008F7D03C0809180008F7780938000089592
:1018C00084B58F7784BD089584B58F7DFBCF8091DB
:1018D000B0008F778093B00008958091B0008F7D25
:1018E000F9CFCF93DF9390E0FC01E55BFF4F2491AC
:1018F0008E599F4FFC0184918823C9F090E0880F96
:10190000991FFC01E357FF4FA591B491FC01ED57DE
:10191000FF4FC591D49161110DC09FB7F8948C9180
:10192000209582238C938881282328839FBFDF9171
:10193000CF910895623051F49FB7F8943C91822F73
:10194000809583238C93E8812E2BEFCF8FB7F8946B
:10195000EC912E2B2C938FBFEACF1F93CF93DF9365
:10196000282F30E0F901EC5CFF4F8491F901E55B31
:10197000FF4FD491F901EE59FF4FC491CC23A1F050
:10198000162F811185DFEC2FF0E0EE0FFF1FED57D2
:10199000FF4FA591B4918FB7F894EC91111108C045
:1019A000D095DE23DC938FBFDF91CF911F910895F7
:1019B000DE2BF8CFCF93DF93282F30E0F901EC5CDA
:1019C000FF4F8491F901E55BFF4FD491F901EE5986
:1019D000FF4FC491CC2399F081115ADFEC2FF0E036
:1019E000EE0FFF1FE758FF4FA591B491EC91ED2347
:1019F00081E090E009F480E0DF91CF91089580E0EC
:101A000090E0FACF0895F999FECF92BD81BDF89A82
:101A1000992780B50895262FF999FECF1FBA92BD58
:101A200081BD20BD0FB6F894FA9AF99A0FBE0196BF
:061A30000895F894FFCFB9
:101A3600080007000600050004000300020001007C
:0A1A46000100A000130012000F00C1
:00000001FF
